:100000001AC034C03EC232C031C06DC02FC02EC035
:100010002DC02CC020C22AC029C028C0AEC00000FC
:100020000000370000000000380002020202020255
:1000300001020408102011241FBECFE5D2E0DEBF6C
:10004000CDBF10E0A0E6B0E0E2EDF5E002C0059023
:100050000D92A036B107D9F720E0A0E6B0E001C0CC
:100060001D92AF37B207E1F729D2B1C2C9CF8111D2
:1000700005C08FB7F894C2988FBF08958FB7F894D2
:10008000C29AFACFCF93DF9390E0FC01E05DFF4F7F
:100090002491865D9F4FFC0184918823D1F090E0EC
:1000A000880F991FFC01E25EFF4FA591B491FC01FE
:1000B000EC5DFF4FC591D49161110EC09FB7F894CC
:1000C0008C91E22FE0958E238C932881E223E883A4
:1000D0009FBFDF91CF9108958FB7F894EC91E22BF9
:1000E000EC938FBFF6CF1F920F920FB60F92112491
:1000F0002F933F938F939F93AF93BF9380917B00F8
:1001000090917C00A0917D00B0917E0030917A00AA
:1001100026E0230F2D3768F129E8230F0396A11D50
:10012000B11D20937A0080937B0090937C00A09374
:100130007D00B0937E008091760090917700A09131
:100140007800B09179000196A11DB11D80937600D1
:1001500090937700A0937800B0937900BF91AF910E
:100160009F918F913F912F910F900FBE0F901F90F5
:1001700018950296A11DB11DD4CF1F920F920FB6F4
:100180000F9211242F933F934F935F936F937F931D
:100190008F939F93AF93BF93EF93FF931DB88FB14E
:1001A00090E29ABF9BB790629BBF90E09C0135950F
:1001B00027952575880F991F8A7A282B30E0C90169
:1001C00095958795959587958373220F331F220FF9
:1001D000331F2C7C822B8295883F50F490E1980F3E
:1001E0009830B8F410927500109274001092730059
:1001F000FF91EF91BF91AF919F918F917F916F91FF
:100200005F914F913F912F910F900FBE0F901F90D4
:10021000189590E8980F903758F480937500809166
:1002200075008F708093740081E080937300E0CF3D
:10023000909175009923E1F290917300913021F42F
:100240008093720082E0F1CF90917300923081F63A
:100250008093710081E080937300809174008F30EF
:1002600039F68091750090E0E4E095958795EA95E0
:10027000E1F7089759F08091750090E074E095954A
:1002800087957A95E1F7099709F0B1C080917200DE
:10029000843218F484E28093720080917200813677
:1002A00018F080E6809372008091720084528093EF
:1002B00072008091750090E064E0959587956A954D
:1002C000E1F70997D1F5809171008823B1F1809110
:1002D0007000803190F5809171009091720080E003
:1002E000209170008217A0F4E82FF0E0E05AFF4F51
:1002F000208192130BC0E0917000E150FF0BE05A97
:10030000FF4F8081880F880F8EBD17C08F5FE8CFA9
:10031000E0917000F0E0E05AFF4F90838091700010
:100320008F5F8093700080E0A2DE8CE390E0019705
:10033000F1F7809170008111DECF8091750090E01F
:1003400054E0959587955A95E1F7089779F0809153
:10035000750090E044E0959587954A95E1F70997F7
:1003600009F03FC08091710081113BC08091700005
:100370008823B9F1809171002091720080E090E0B3
:1003800030917000831790F4E82FF0E0DF01A05A5D
:10039000BF4F3C91231308C08F3028F4EF59FF4F13
:1003A00090819C93208391E08F5FEACF9923C9F0DD
:1003B00080917000815080937000E0917000F0E0B7
:1003C000EF59FF4F108280917000882351F0E09127
:1003D0007000E150FF0BE05AFF4F8081880F880FBB
:1003E0008EBD809170008823A1F181E040DE809174
:1003F000750090E034E0959587953A95E1F70B9775
:1004000021F480917100809172008091750090E0DC
:1004100024E0959587952A95E1F70E9709F0E8CEA7
:100420008091710090917200782F7695682F679572
:1004300066276795692B90E080E02FEF30E040E081
:1004400050E06ED02FEF3FE340E050E082D02BBD74
:10045000CFCE80E0CBCF1F920F920FB60F92112418
:100460008F9389B78F7E89BF12BE8FE389BD84E4E5
:100470008DB988E48EB98F910F900FBE0F901F90A9
:1004800018951F920F920FB60F9211248F93B09967
:100490000FC08BB78F7D8BBF82E08ABD83BF12BE3A
:1004A0008FE189BD88B7806188BF89B7806189BFC6
:1004B0008F910F900FBE0F901F90189583E08ABD0B
:1004C00083BF789489B7826089BF80E48CBD8FEF49
:1004D0008DBD87EC80BF86E886B986E087BD1DB8F4
:1004E00080E28ABF8BB780628BBFA89A19BE81E673
:1004F00080BF1EBC8FE78BBD8FEE8DBD1CBC80E620
:100500008CBD60E080E0BEDD61E081E0BBDD61E0EC
:1005100082E0B8DD61E084E0B5DD80E0A8DDFFCFFA
:10052000EE27FF27AA27BB2708C0A20FB31FE41F8F
:10053000F51F220F331F441F551F969587957795FA
:10054000679598F37040A9F7009799F7BD01CF011F
:100550000895052E97FB16F400940FD057FD05D093
:1005600014D007FC02D046F408C050954095309551
:1005700021953F4F4F4F5F4F08959095809570950F
:1005800061957F4F8F4F9F4F0895A1E21A2EAA1BAE
:10059000BB1BFD010DC0AA1FBB1FEE1FFF1FA21733
:1005A000B307E407F50720F0A21BB30BE40BF50B30
:1005B000661F771F881F991F1A9469F760957095B9
:1005C000809590959B01AC01BD01CF010895F894F1
:0205D000FFCF5B
:00000001FF
